:100000000C9472000C947E000C947E000C947E0084
:100010000C947E000C947E000C947E000C947E0068
:100020000C947E000C947E000C947E000C947E0058
:100030000C947E000C947E000C947E000C947E0048
:100040000C947E000C947E000C947E000C947E0038
:100050000C947E000C947E000C947E000C947E0028
:100060000C947E000C947E000C947E000C947E0018
:100070000C947E000C947E000C947E000C947E0008
:100080000C947E000C947E000C947E000C947E00F8
:100090000C947E000C947E000C947E000C947E00E8
:1000A0000C947E000C947E000C947E000C947E00D8
:1000B0000C947E000C947E000C947E000C947E00C8
:1000C0000C947E000C947E000C947E000C947E00B8
:1000D0000C947E000C947E000C947E000C947E00A8
:1000E0000C947E0011241FBECFEFD1E2DEBFCDBF46
:1000F00000E00CBF0E9480000C949F000C94000054
:10010000279A269A40E951E020E43CE92F9A80EDB5
:1001100097E0FA013197F1F70197D9F72F98C901C4
:100120000197F1F72E9A80ED97E0FA013197F1F7F8
:100130000197D9F72E98C9010197F1F7E7CFF89405
:02014000FFCFEF
:00000001FF
